:020000040800F2
:10000000A0270020E5020008AD030008A5030008B2
:10001000A90300089F030008550400080000000021
:1000200000000000000000000000000025020008A1
:10003000A30300080000000081020008B1030008CB
:10004000FF020008FF020008FF020008FF0200088C
:10005000FF020008FF020008FF020008FF0200087C
:10006000FF020008FF020008FF020008FF0200086C
:10007000FF020008FF020008FF020008FF0200085C
:10008000FF020008FF020008FF020008FF0200084C
:10009000FF020008FF020008FF020008FF0200083C
:1000A000FF020008FF020008FF020008FF0200082C
:1000B000FF020008FF020008FF020008FF0200081C
:1000C000FF020008FF020008FF020008FF0200080C
:1000D000FF020008FF020008FF020008FF020008FC
:1000E000FF020008FF020008FF020008FF020008EC
:1000F000FF020008FF020008FF020008FF020008DC
:10010000FF020008FF020008FF020008FF020008CB
:10011000FF020008FF020008FF020008FF020008BB
:10012000FF020008FF020008FF020008FF020008AB
:10013000FF020008FF020008FF020008FF0200089B
:1001400000000000000000000000000000000000AF
:10015000FF020008FF020008FF020008FF0200087B
:10016000FF020008FF020008FF020008FF0200086B
:10017000FF020008FF020008FF020008FF0200085B
:10018000FF02000800F002F800F03CF80AA090E836
:10019000000C82448344AAF10107DA4501D100F042
:1001A00031F8AFF2090EBAE80F0013F0010F18BFD3
:1001B000FB1A43F00103184784140000A414000044
:1001C000103A24BF78C878C1FAD8520724BF30C883
:1001D00030C144BF04680C60704700000023002455
:1001E00000250026103A28BF78C1FBD8520728BF47
:1001F00030C148BF0B6070471FB501F011FA1FBD39
:1002000010B510BD00F091F81146FFF7F5FF00F0B2
:100210005BFA00F0AFF803B4FFF7F2FF03BC00F0A5
:10022000B7F800002C4B19680868B0E8F04F80F36D
:100230000988BFF36F8F4FF0000080F3118870477B
:100240000000000008480068006880F308884FF04C
:10025000000080F3148862B661B6BFF34F8FBFF31E
:100260006F8F00DF00BF00BF08ED00E0DFF80C007B
:10027000016841F470010160704700BF88ED00E043
:10028000EFF30980BFF36F8F134B1A681EF0100F46
:1002900008BF20ED108A20E9F04F106009B44FF03C
:1002A000100080F31188BFF34F8FBFF36F8F00F002
:1002B00067FF4FF0000080F3118809BC19680868D7
:1002C000B0E8F04F1EF0100F08BFB0EC108A80F3BA
:1002D0000988BFF36F8F704718000020EFF3058087
:1002E000704700000948804709480047FEE7FEE7DD
:1002F000FEE7FEE7FEE7FEE7FEE7FEE7FEE7FEE7D6
:1003000004480549054A064B70470000E50300080C
:1003100085010008A0210020A0270020A0230020A4
:10032000A0230020704770477047754600F02CF8F6
:10033000AE4605006946534620F00700854618B0D2
:1003400020B5FFF7DDFFBDE820404FF000064FF07D
:1003500000074FF000084FF0000B21F00701AC46FA
:10036000ACE8C009ACE8C009ACE8C009ACE8C00919
:100370008D46704710B50446AFF300802046BDE8B7
:100380001040FFF748BF00000048704740210020A0
:1003900001491820ABBEFEE726000200704700BFEF
:1003A000FEE7704700BFFEE700BFFEE770470000B2
:1003B00010B500BF102080F31188BFF34F8FBFF33B
:1003C0006F8F00BF01F006F818B14FF0805004495C
:1003D000086000BF002080F3118800BF10BD00003E
:1003E00004ED00E01848006840F470001649086009
:1003F0001648006820F00100401C1449086000BF46
:1004000012480068C0F340000028F9D00F48406847
:1004100020F003000D49486000BF0C484068C0F35D
:1004200081000028F9D109480068094908400749B6
:1004300008600020486008634FF41F008860C8030C
:10044000014980390860704788ED00E000100240E3
:10045000FFFFF2FE00BFFEE70349496860F30711A2
:10046000014A51607047000000100240034949688A
:1004700060F30A21014A51607047000000100240F9
:100480000349496860F3CD21014A5160704700007B
:1004900000100240012807D10749496D21F03001C1
:1004A0003031054A516505E00349496D21F03001BD
:1004B000014A51657047000000100240052827D20C
:1004C000DFE800F0030A11181F00134A126861F3F5
:1004D0000002114B1A601CE00F4A126861F31042CF
:1004E0000D4B1A6015E00C4A126861F318620A4B52
:1004F0001A600EE0084A126A61F30002064B1A62A3
:1005000007E0054A526A61F30002034B5A6200E0B9
:1005100000BF00BF704700000010024010B5014648
:100520000020094B03EB1142126801F01F04012364
:10053000A3401A4001F01F040123A3409A4200D0B7
:1005400000E0012010BD0000001002400349496D89
:1005500060F30D31014A5165704700000010024000
:1005600030B50024002500E0641C1120FFF7D6FF01
:10057000012802D0B4F5405FF6D31120FFF7CEFF7B
:10058000012801D0002500E00125284630BD0000EB
:1005900010B568B91C4B5B6823F480331A4C636058
:1005A00023461B6B23F0007303F10073236317E0F2
:1005B000154B5B6823F4803303F58033124C636082
:1005C000012805D123465B6823F40033636007E00C
:1005D0000D4B5B6823F4003303F500330A4C636072
:1005E000094B5B6861F39543074C63600C09064B4C
:1005F0005B6864F35E73044C636023465B6862F37C
:10060000DF73636010BD00000010024013480068F3
:1006100020F00100401C1149086000BF0F4800682D
:10062000C0F340000028F9D00C48406820F00300D7
:100630000A49486000BF09484068C0F381000028AB
:10064000F9D10648006806490840044908600020BE
:10065000486008634FF41F00886070470010024034
:10066000FFFFF2FE0D49496860F301010B4A51603A
:1006700000BF00BF00BF00BF00BF00BF00BF00BF82
:1006800000BF00BF00BF00BF00BF00BF00BF00BF72
:1006900000BF00BF00BF00BF704700000010024055
:1006A00002484068C0F3810070470000001002401B
:1006B00003E04FF47A7000F0E5FCFAE703E04FF452
:1006C000FA7000F0DFFCFAE71CB5032000F030F808
:1006D00000F02CFB0C48022100230A02CDE9001097
:1006E0000AA10D4800F046FE0C48022100230A0230
:1006F000CDE900100AA10D4800F03CFE00F03EFCE0
:1007000000F0EEFC00201CBD000000204C454432EF
:100710005F7461736B000000B106000804000020E4
:100720004C4544335F7461736B000000BD060008E4
:1007300000BF00F00702064B19684FF6FF0319408F
:10074000044B0B4343EA0221014B196000BF704781
:100750000CED00E00000FA052DE9F04105460E46DB
:100760001C4807681C480068001D00F093FB50B946
:100770001948006890F82C10012088401749096832
:10078000814316480160681C38B936B112480168C7
:10079000091D134800F0BCFB1AE07C190E480068E4
:1007A0004460BC4207D20C480168091D0D4800682E
:1007B00000F094FB0CE008480168091D0A48006835
:1007C00000F08CFB09480068844201D207480460AD
:1007D000BDE8F0812C00002018000020300000202F
:1007E0002C010020200000201C00002048000020D8
:1007F00010B5044600F098FB23480068401C2249CD
:1008000008602248006840B9204804600846006833
:1008100001280DD100F01EF90AE01D48006838B922
:100820001A480068C06AE16A884201D81748046023
:1008300018480068401C1749086094F82C100120E3
:10084000884015490968084313490860E16A01EBCB
:100850008101124A02EB8100211D00F059FB00F0DA
:100860008DFB0B48006868B108480068C06AE16AFF
:10087000884207D24FF0805009490860BFF34F8F7C
:10088000BFF36F8F10BD000028000020180000206B
:1008900034000020440000203000002078000020B8
:1008A00004ED00E010B516E000F03EFB0C48C06817
:1008B000C468201D00F0EEFA0A480068401E09498D
:1008C000086009480068401E0749086000F056FBB0
:1008D000204600F00BF8044800680028E4D110BD61
:1008E00018010020280000202400002010B5044634
:1008F000206B00F061FB204600F05EFB10BD0000A5
:1009000030B54FF40053174800F007042CB1C01D58
:1009100020F00700134C041B1B1B0246124C2260E4
:100920000024114D6C60D018083820F007000F4CDF
:10093000206000240D4D2D686C600C4D2D682C60DE
:100940001146441A4C60094C24680C60084D4C68F0
:100950002C60084D4C682C604FF00044064D2C6014
:1009600030BD000040010020580000206000002041
:1009700068000020640000207400002000BFFFF722
:1009800091FF064800680128F9D94FF080500449CA
:100990000860BFF34F8FBFF36F8FF0E77800002040
:1009A00004ED00E02DE9FF5F81460E469246DDE949
:1009B0000E7B109CAAF10100216B01EB800828F04E
:1009C000070808F0070008B9012000E0002050B92E
:1009D00000BF102080F31188BFF34F8FBFF36F8FDC
:1009E00000BF00BFFEE786B1002507E0715D04F19E
:1009F00034004155705D00B902E06D1C102DF5D337
:100A000000BF00214320015502E0002084F834009B
:100A1000052F00D30427E762201D00F05CFA04F1E3
:100A2000180000F058FA2461C7F10500A061646263
:100A30000020606484F8480049464046039A00F06C
:100A40005FF92060BBF1000F01D0CBF80040BDE89A
:100A5000FF9F000010B5002407E004EB84010F4A5B
:100A600002EB810000F02AFA641C052CF5D30C4837
:100A700000F024FA0B4800F021FA0B4800F01EFAAF
:100A80000A4800F01BFA0A4800F018FA044809491D
:100A9000086004480849086010BD00007800002084
:100AA000DC000020F00000200401002018010020DC
:100AB0002C0100201C0000202000002010B5014661
:100AC000164800E0006803688B42FBD30246436887
:100AD00013448B4204D143684C682344436001466D
:100AE0000A464B6813440468A34211D10C4C0368B6
:100AF0002468A34208D04B680468646823444B60B0
:100B000003681B680B6005E0054B1B680B6001E088
:100B100003680B60884200D0016010BD58000020BF
:100B20006000002009480068006808B9012000E062
:100B3000002020B14FF0FF300549086005E0034870
:100B40000068C06800680249086070471C00002007
:100B5000480000200E480068401C08B9012000E051
:100B6000002050B900BF102080F31188BFF34F8FD1
:100B7000BFF36F8F00BF00BFFEE700BF102080F300
:100B80001188BFF34F8FBFF36F8F00BF00BFFEE729
:100B9000080000202DE9F04104464FF0000800F065
:100BA000E7FA5148006808B9FFF7AAFE4F48006805
:100BB000204000287ED13CB304F10800A04223D994
:100BC000083404F0070000B304F00700C0F1080087
:100BD0002044A04216D904F00700C0F108000444E4
:100BE00004F0070008B9012000E0002068B900BF48
:100BF000102080F31188BFF34F8FBFF36F8F00BFBA
:100C000000BFFEE7002400E00024002C54D0384848
:100C10000068844250D8374E3046056801E02E46C1
:100C20002D686868A04202D228680028F7D12E48B3
:100C30000068854240D0306800F1080828683060BC
:100C40006868001B102819D92F1907F0070008B988
:100C5000012000E0002050B900BF102080F311886F
:100C6000BFF34F8FBFF36F8F00BF00BFFEE7686811
:100C7000001B78606C603846FFF720FF1C496868ED
:100C80000968081A1A490860084600681A4909687C
:100C9000884203D2164800681749086013496868FB
:100CA0000968084368600020286014480068401CF8
:100CB000124900E000E0086000F030FC08F0070096
:100CC00008B9012000E0002050B900BF102080F3D7
:100CD0001188BFF34F8FBFF36F8F00BF00BFFEE7D8
:100CE0004046BDE8F0810000600000207400002054
:100CF0006400002058000020680000206C000020E4
:100D0000001F4FF080730360001F21F00103036098
:100D1000001F054B036014380260001F6FF00203D0
:100D20000360203870470000550B000810B5FFF72E
:100D30006DFC01210846FFF7C1FB00BFFFF710FC67
:100D40000028FBD001223B210220FFF721FC0020DC
:100D5000FFF7FCFB01210220FFF7B0FB00BF1920C9
:100D6000FFF7DCFB0128FAD10020FFF775FB042018
:100D7000FFF786FB0420FFF779FB0120FFF78AFBD2
:100D80000220FFF76FFC00BFFFF78AFC0228FBD1AF
:100D90000020FFF77FFB00F001F810BD2DE9F047C0
:100DA0000026002400250027A046A146FFF778FC76
:100DB0008246BAF1000F06D0BAF1010F15D0BAF190
:100DC000020F46D115E02D48406DC0F3402040B1E0
:100DD0002A48006BC0F3406018B1294829490860CF
:100DE00002E029482749086037E02748254908607C
:100DF00033E022484068C0F3004720484068C0F311
:100E000083441E484068C0F341750DB90F2C03D1CF
:100E10002801401C044400E0A41C27B91B4860437F
:100E20001849086014E015484068C0F3404058B1C4
:100E30001248406DC0F30136B01C1349B1FBF0F00D
:100E400060431049086003E00F4860430D490860A3
:100E500003E00D480B49086000BF00BF0748406829
:100E6000C0F303180A4810F808900648006820FAF2
:100E700009F004490860BDE8F08700000010024056
:100E8000006CDC021400002000127A0000093D0012
:100E90002A16000801460A69D1E901309860D1E9B3
:100EA000010358605068884201D188685060002072
:100EB00008611068401E10601068704700F108015A
:100EC00041604FF0FF31816000F10801C1600161B4
:100ED00000210160704700210161704710B5024692
:100EE0000B685C1C0CB9106907E002F1080000E017
:100EF0004068446824689C42FAD944684C604C6855
:100F0000A160886041600A611468641C146010BDAF
:100F100042684A6093688B60936859609160086189
:100F200003685B1C0360704700BF102080F31188CA
:100F3000BFF34F8FBFF36F8F00BF0E480068401C98
:100F40000C49086008460068012812D10A48006868
:100F5000C0B208B9012000E0002050B900BF102045
:100F600080F31188BFF34F8FBFF36F8F00BF00BFB7
:100F7000FEE770470800002004ED00E00D4800681F
:100F800050B900BF102080F31188BFF34F8FBFF31B
:100F90006F8F00BF00BFFEE706480068401E05498E
:100FA00008600846006820B9002080F3118800BF5F
:100FB00000BF70470800002070B506463546002E79
:100FC00044D0083D2C46224960680968084008B1B1
:100FD000012000E0002050B900BF102080F31188EC
:100FE000BFF34F8FBFF36F8F00BF00BFFEE72068D6
:100FF00008B9012000E0002050B900BF102080F3A4
:101000001188BFF34F8FBFF36F8F00BF00BFFEE7A4
:101010000F49606809680840C0B12068B0B90C4940
:10102000606809688843606000F0A2F80949606858
:1010300009680844074908602046FFF73FFD064855
:101040000068401C0449086000F068FA70BD0000A8
:1010500074000020640000207000002000204FF089
:10106000E02108618861064800684FF47A71B0FB9E
:10107000F1F0401E4FF0E021486107200861704701
:101080001400002070B504460025D4B11248006851
:1010900008B9012000E0002050B900BF102080F303
:1010A0001188BFF34F8FBFF36F8F00BF00BFFEE704
:1010B00000F05EF800212046FFF74EFB00F02EFA0C
:1010C00005463DB94FF0805004490860BFF34F8F8B
:1010D000BFF36F8F70BD00005400002004ED00E0EE
:1010E0001CB51B4800210B468022CDE9001019A138
:1010F0001A4800F03FF90446012C15D100BF10201A
:1011000080F31188BFF34F8FBFF36F8F00BF4FF095
:10111000FF3013490860012012490860002012497D
:10112000086000F073F810E0601C08B1012000E0D6
:10113000002050B900BF102080F31188BFF34F8FFB
:10114000BFF36F8F00BF00BFFEE7084800681CBDFB
:101150004C00002049444C45000000007D09000877
:1011600048000020340000202C0000205000002007
:1011700002480068401C0149086070475400002084
:101180001D48006818B101201C49086032E00020A9
:101190001A4908601A480068B0FA80F0C0F11F01CF
:1011A00001EB8100174A52F8200008B1012000E04D
:1011B000002050B900BF102080F31188BFF34F8F7B
:1011C000BFF36F8F00BF00BFFEE701EB81020D4B45
:1011D00003EB820042685268426000F108024368F3
:1011E000934202D14268526842604268D268064B1C
:1011F0001A6000BF70470000540000203C0000202F
:101200003000002078000020180000201CB5524853
:1012100000685249884201D0012000E0002050B906
:1012200000BF102080F31188BFF34F8FBFF36F8F83
:1012300000BF00BFFEE7484800684849491E884291
:1012400001D0012000E0002050B900BF102080F341
:101250001188BFF34F8FBFF36F8F00BF00BFFEE752
:101260003F49084600780190FF200A461070084662
:10127000007800909DF8000000F0F0009DF800203C
:10128000904201D1012000E0002050B900BF1020A1
:1012900080F31188BFF34F8FBFF36F8F00BF00BF84
:1012A000FEE79DF8000000F010002E4A10700720A5
:1012B0002D4A106009E02C480068401E2A4A106040
:1012C0009DF800004006000E00909DF8000000F020
:1012D00080008028EFD024480068C0F1070004286F
:1012E00001D1012000E0002050B900BF102080F3A0
:1012F0001188BFF34F8FBFF36F8F00BF00BFFEE7B2
:10130000194800680002184A10601046008800F46E
:10131000E0601060124A019810700F482030006899
:1013200040F470000C49203108600846006840F025
:1013300070400860FFF792FE00200C490860FEF73D
:1013400095FF0B48006840F0404009490860FEF7EF
:1013500079FF00201CBD000000ED00E071C20F41CC
:1013600000E400E00C000020100000200800002035
:1013700034EF00E02DE9FF4F85B0804689461746DF
:10138000DDE912ABB800FFF705FC064656B14C206C
:10139000FFF700FC04460CB1266304E03046FFF77B
:1013A0000BFE00E000247CB10020CDE900ABCDE9CC
:1013B00002403A4649464046089BFFF7F3FA20466A
:1013C000FFF716FA012501E04FF0FF35284609B076
:1013D000BDE8F08F2DE9F0414FF000084448006867
:1013E00000287CD143480068451C4248056015BB75
:1013F00041480068006808B9012000E0002050B9A9
:1014000000BF102080F31188BFF34F8FBFF36F8FA1
:1014100000BF00BFFEE73848076838480068364913
:1014200008603648076036480068401C3449086048
:10143000FFF778FB00BF3348006885423CD300BF0C
:101440002D480068006808B9012000E0002020B1A4
:101450004FF0FF302B4908602DE027480068C06836
:10146000C4686668B54202D22648066023E0201DA3
:10147000FFF710FDA06A18B104F11800FFF70AFD8C
:1014800094F82C10012088401F49096808431E4920
:101490000860E16A01EB81011C4A02EB8100211D19
:1014A000FFF736FD1A49E06A0968C96A8842C7D35E
:1014B0004FF00108C4E700BF15480068C06A00EBA0
:1014C0008000124951F82000012801D94FF001088D
:1014D0001048006808B14FF0010805E0FFE70E482A
:1014E0000068401C0C4908604046BDE8F0810000DF
:1014F000540000202C0000201C00002020000020B0
:10150000400000204800002030000020780000202B
:10151000180000203C0000203800002070B5002496
:1015200000263648006850B900BF102080F31188AB
:10153000BFF34F8FBFF36F8F00BF00BFFEE7FFF712
:10154000F3FC2E480068401E2C49086008460068DD
:1015500000284FD12A48006800284BD024E02948B1
:10156000C068C46804F11800FFF794FC201DFFF761
:1015700091FC94F82C100120884023490968084305
:1015800021490860E16A01EB8101204A02EB8100F8
:10159000211DFFF7BDFC1E49E06A0968C96A88423F
:1015A00002D301201B4908601648006808B90120D1
:1015B00000E000200028D2D00CB1FFF7B3FA1648A3
:1015C000056865B100BFFFF705FF10B101201149A3
:1015D00008606D1E002DF6D100200F4908600D48EF
:1015E000006838B1012630070C490860BFF34F8FFF
:1015F000BFF36F8FFFF7C2FC304670BD5400002070
:101600002800002004010020300000207800002085
:10161000180000203C0000203800002004ED00E00D
:101620004FF04070E1EE100A70470000000000002B
:101630000000010203040607080900005C16000808
:101640000000002078000000C0010008D416000847
:101650007800002028270000DC01000800000000BE
:1016600000000000AAAAAAAA0000000000000000D2
:1016700000127A00000000000000000000000000DE
:10168000000000000000000000000000000000005A
:10169000000000000000000000000000000000004A
:1016A0000000000000000000000000000400000036
:1016B000000000000000000000000000000000002A
:1016C000000000000000000000000000000000001A
:0416D0000000000016
:040000050800018569
:00000001FF
