:020000040800F2
:100000007006002025020008ED020008E502000845
:10001000E9020008DF020008670300080000000092
:10002000000000000000000000000000F1020008D5
:10003000E302000800000000EF0200083D02000893
:100040003F0200083F0200083F0200083F0200088C
:100050003F0200083F0200083F0200083F0200087C
:100060003F0200083F0200083F0200083F0200086C
:100070003F0200083F0200083F0200083F0200085C
:100080003F0200083F0200083F0200083F0200084C
:100090003F0200083F0200083F0200083F0200083C
:1000A0003F0200083F0200083F0200083F0200082C
:1000B0003F0200083F0200083F0200083F0200081C
:1000C0003F0200083F0200083F0200083F0200080C
:1000D0003F020008650300083F0200083F020008D5
:1000E0003F0200083F0200083F0200083F020008EC
:1000F0003F0200083F0200083F0200083F020008DC
:100100003F0200083F0200083F0200083F020008CB
:100110003F0200083F0200083F0200083F020008BB
:100120003F0200083F0200083F0200083F020008AB
:100130003F0200083F0200083F0200083F0200089B
:1001400000000000000000000000000000000000AF
:100150003F0200083F0200083F0200083F0200087B
:100160003F0200083F0200083F0200083F0200086B
:100170003F0200083F0200083F0200083F0200085B
:100180003F02000800F002F800F03CF80AA090E8F6
:10019000000C82448344AAF10107DA4501D100F042
:1001A00031F8AFF2090EBAE80F0013F0010F18BFD3
:1001B000FB1A43F001031847B00C0000D00C0000FC
:1001C000103A24BF78C878C1FAD8520724BF30C883
:1001D00030C144BF04680C60704700000023002455
:1001E00000250026103A28BF78C1FBD8520728BF47
:1001F00030C148BF0B6070471FB500F013FE1FBD34
:1002000010B510BD00F031F81146FFF7F5FF00F012
:1002100053FB00F04FF803B4FFF7F2FF03BC00F00C
:1002200057F800000948804709480047FEE7FEE705
:10023000FEE7FEE7FEE7FEE7FEE7FEE7FEE7FEE796
:1002400004480549054A064B70470000F5020008BE
:100250008501000870000020700600207002002058
:1002600070020020704770477047754600F02CF808
:10027000AE4605006946534620F00700854618B093
:1002800020B5FFF7DDFFBDE820404FF000064FF03E
:1002900000074FF000084FF0000B21F00701AC46BB
:1002A000ACE8C009ACE8C009ACE8C009ACE8C009DA
:1002B0008D46704710B50446AFF300802046BDE878
:1002C0001040FFF7A8BF0000004870470C00002056
:1002D00001491820ABBEFEE726000200704700BFB0
:1002E000FEE7704700BFFEE700BFFEE770477047BC
:1002F000704700001848006840F470001649086014
:100300001648006820F00100401C1449086000BF36
:1003100012480068C0F340000028F9D00F48406838
:1003200020F003000D49486000BF0C484068C0F34E
:1003300081000028F9D109480068094908400749A7
:1003400008600020486008634FF41F008860C803FD
:10035000014980390860704788ED00E000100240D4
:10036000FFFFF2FE704700BFFEE700000349496847
:1003700060F30711014A516070470000001002400D
:100380000349496860F30A21014A5160704700003F
:10039000001002400349496860F3CD21014A5160D1
:1003A0007047000000100240052827D2DFE800F067
:1003B000030A11181F00134A126861F30002114B5F
:1003C0001A601CE00F4A126861F310420D4B1A606C
:1003D00015E00C4A126861F318620A4B1A600EE0CD
:1003E000084A126A61F30002064B1A6207E0054AE6
:1003F000526A61F30002034B5A6200E000BF00BF83
:1004000070470000001002402DE9F041014600272E
:100410000022002590460023002400F065F90646DE
:1004200026B1012E12D0022E43D112E03948406D80
:10043000C0F3402038B13748006BC0F3406010B1C2
:100440003548086001E03548086035E03348086009
:1004500032E030484068C0F300482E484068C0F39E
:1004600083422C484068C0F341750DB90F2A03D16F
:100470002801401C024400E0921CB8F1000F03D197
:1004800027485043086013E022484068C0F34040CA
:1004900058B12048406DC0F30137B81CDFF87CC06C
:1004A000BCFBF0F05043086002E01C485043086079
:1004B00002E01A48086000BF00BF16484068C0F359
:1004C00003131848C45C0868E0404860114840685D
:1004D000C0F302231448C45C4868E040C8600D487B
:1004E0004068C0F3C2231148C45C4868E04088609B
:1004F00008484068C0F3007306484068C0F3813084
:1005000040EA83030A48C45C8868B0FBF4F00861E1
:10051000BDE8F08100100240006CDC0200127A009D
:1005200000093D002E0E00083E0E0008460E000891
:100530004E0E000810B501460020094B03EB114296
:10054000126801F01F040123A3401A4001F01F04A8
:100550000123A3409A4200D000E0012010BD00001A
:100560000010024030B50024002500E0641C11207A
:10057000FFF7E0FF012802D0B4F5405FF6D3112069
:10058000FFF7D8FF012801D0002500E0012528460B
:1005900030BD000010B501290DD10E4B03EB104208
:1005A000126800F01F040123A3401A43094C04EB16
:1005B00010431A600CE0074B03EB1042126800F086
:1005C0001F040123A3409A43024C04EB10431A601A
:1005D00010BD00000010024010B568B91C4B5B68EC
:1005E00023F480331A4C636023461B6B23F00073A3
:1005F00003F10073236317E0154B5B6823F480332A
:1006000003F58033124C6360012805D123465B68F3
:1006100023F40033636007E00D4B5B6823F4003381
:1006200003F500330A4C6360094B5B6861F3954343
:10063000074C63600C09064B5B6864F35E73044C03
:10064000636023465B6862F3DF73636010BD000084
:10065000001002401348006820F00100401C1149BE
:10066000086000BF0F480068C0F340000028F9D0C0
:100670000C48406820F003000A49486000BF094860
:100680004068C0F381000028F9D106480068064997
:100690000840044908600020486008634FF41F00C8
:1006A0008860704700100240FFFFF2FE0D49496864
:1006B00060F301010B4A516000BF00BF00BF00BFE3
:1006C00000BF00BF00BF00BF00BF00BF00BF00BF32
:1006D00000BF00BF00BF00BF00BF00BF00BF00BF22
:1006E000704700000010024002484068C0F38100DB
:1006F000704700000010024010B5042000F0F0F92F
:10070000074800680749B0FBF1F007490860084650
:1007100000684FF47A7148430449086010BD000036
:100720000000002040420F000400002008000020CC
:10073000002131E032280ADD194A126832235A4377
:100740004FF0E0235A61A0F1320290B206E0144A61
:10075000126842434FF0E0235A61002000224FF01C
:10076000E0239A611A46126942F001021A6100BF41
:100770004FF0E022116901F001021AB101F4803258
:10078000002AF5D04FF0E022126922F001024FF06A
:10079000E0231A6100229A610028CBD17047000043
:1007A0000800002041617047016170474FF6FF71FA
:1007B0000160002181710171042141710121C17128
:1007C0007047F0B50A461588ABB29579032D01D173
:1007D00000241AE0957965B9557905F00F0455792B
:1007E000182D01D1036110E05579282D0DD14361F9
:1007F0000BE0957905F00805167906F004063543F7
:10080000D67906F0030645EA0604DDB2A5B100215B
:1008100010E001258D401D405DB105688F000F2659
:10082000BE40B543056005688E0004FA06F6354300
:100830000560491C0829ECD3FF2B15DD1B12002194
:1008400010E001258D401D405DB145688F000F26E9
:10085000BE40B543456045688E0004FA06F6354350
:100860004560491C0829ECD3F0BD0000F0B50C46EA
:10087000104F07EB1062C0F30741C0F30725C6B263
:10088000C5F12007A7EB010C4FF0FF3707FA0CF377
:10089000C5F120077F1AFB40CB408B4017689F4370
:1008A00017602CB106FA01FC176847EA0C071760BD
:1008B000F0BD00000000014000F026FA00F00CFA44
:1008C00000F0CEF900F0FEF900F064FA00F0D0F983
:1008D000FFF712FF0DE001210648FFF765FF6420D6
:1008E000FFF726FF01210348FFF75CFF6420FFF7B5
:1008F0001FFFF0E7000801402DE9F0470B461446C2
:100900004FF0000C00BF2C4A1268C2F302211D46B2
:1009100026460A46C2F10709B9F1040F02D94FF081
:10092000040901E0C2F10709C84602F10409B9F15E
:10093000070F02D24FF0000901E0A2F103094F4670
:100940004FF0010909FA08F9A9F1010909EA0509B5
:1009500009FA07F94FF0010A0AFA07FAAAF1010A9F
:100960000AEA060A49EA0A09CC4601466246002913
:1009700004DB15072E0E114D6E5407E015072F0EE0
:100980000D4D0C3501F00F06361FAF5500BF014667
:1009900000290DDB00BF00BF01F01F050122AA40A6
:1009A0004D09AD0005F1E025C5F8002100BF00BFED
:1009B00000BFBDE8F08700000CED00E000E400E0BF
:1009C00000BF00F00702064B19684FF6FF031940FD
:1009D000044B0B4343EA0221014B196000BF7047EF
:1009E0000CED00E00000FA052DE9F0470026002498
:1009F00000250027A046A146FFF776FE8246BAF101
:100A0000000F06D0BAF1010F15D0BAF1020F46D18E
:100A100015E02D48406DC0F3402040B12A48006BDE
:100A2000C0F3406018B129482949086002E029480C
:100A30002749086037E027482549086033E0224805
:100A40004068C0F3004720484068C0F383441E4814
:100A50004068C0F341750DB90F2C03D12801401C2B
:100A6000044400E0A41C27B91B48604318490860EF
:100A700014E015484068C0F3404058B11248406D3A
:100A8000C0F30136B01C1349B1FBF0F060431049CC
:100A9000086003E00F4860430D49086003E00D481B
:100AA0000B49086000BF00BF07484068C0F3031847
:100AB0000A4810F808900648006820FA09F004492E
:100AC0000860BDE8F087000000100240006CDC0206
:100AD0000000002000127A0000093D00560E0008B8
:100AE000042808D14FF0E021096941F004014FF0DA
:100AF000E022116107E04FF0E021096921F00401D3
:100B00004FF0E02211617047C26861F34D32C2605C
:100B1000704741B9426922F480724261426922F40D
:100B20000072426127E001290AD1426922F48072F1
:100B300002F580724261426922F4007242611AE059
:100B400002290AD1426922F480724261426922F488
:100B5000007202F5007242610DE003290BD1426977
:100B600022F4807202F580724261426922F40072BE
:100B700002F50072426170472DE9F04385B00446EA
:100B80000F46904699466846FFF73EFC1848844257
:100B900008D01848844205D01748844202D017482C
:100BA000844201D1029E00E0039E06EB86004000D5
:100BB000B0FBF7F50A20B5FBF0F100FB115005285A
:100BC00003D20A20B5FBF0F503E00A20B5FBF0F0F4
:100BD000451CA06865F30F00A060E06868F30C3066
:100BE000E060206969F30D30206105B0BDE8F08355
:100BF000003801400060014000640140006801408D
:100C000041B9C26822F40072C260C26822F48062F4
:100C1000C2601AE001290AD1C26822F40072C260DF
:100C2000C26822F4806202F58062C2600DE002298F
:100C30000BD1C26822F4007202F50072C260C26871
:100C400022F4806202F58062C2607047C26861F37C
:100C50008202C2607047C26861F3C302C26070471B
:100C600010B501210148FFF701FE10BD020310304D
:100C70001CB56846FFF79AFD00208DF80600182085
:100C8000009004208DF8050069460D48FFF799FD96
:100C900005210B48FFF786FD02208DF80700002094
:100CA0008DF8040010208DF8060005200090042027
:100CB0008DF8050069460248FFF783FD1CBD000062
:100CC0000008014010B50320FFF77AFE002211460C
:100CD0002520FFF711FE10BD10B501214FF4C01003
:100CE000FFF758FC01210748FFF754FC0121054894
:100CF000C01CFFF74FFC012102480C30FFF74AFCF3
:100D000010BD00000200180010B5FFF7A3FC012180
:100D10000420FFF749FB00BF1D48FFF70BFC01282B
:100D2000FAD101210846FFF73FFB00BFFFF71AFC8D
:100D30000028FBD001210020FFF736FB00BF012077
:100D4000FFF7F8FB0128FAD100220F211046FFF728
:100D500043FC01210220FFF727FB00BF1920FFF70A
:100D6000E9FB0128FAD10020FFF700FB0420FFF780
:100D700011FB0420FFF704FB0220FFF797FC00BFE4
:100D8000FFF7B2FC0228FBD1FFF72EFE10BD0000DA
:100D9000010024001CB56846FFF708FD02208DF80D
:100DA000070000208DF8040008208DF8060080015F
:100DB000009004208DF8050069461848FFF701FDF2
:100DC00002208DF8070000208DF804008DF8060041
:100DD0004FF48060009004208DF8050069460F48AC
:100DE000FFF7EFFC00231A464FF496410C48FFF73B
:100DF000C3FE01210A48FFF72EFF01210848FFF733
:100E000025FF00210648FFF7FBFE00210448FFF7FD
:100E100080FE01210248FFF777FE1CBD000801405B
:100E2000003801404FF04070E1EE100A70470000BA
:100E3000000000000000010203040607080900008A
:100E40000000010203040000000001020304020488
:100E50000608020C0810000000000000000001025B
:100E60000304060708090000880E0008000000209F
:100E70000C000000C0010008940E00080C000020C7
:100E800064060000DC01000800127A000000000087
:040E9000000000005E
:040000050800018569
:00000001FF
