:020000040800F2
:100000007006002025020008ED020008E502000845
:10001000E9020008DF020008650300080000000094
:10002000000000000000000000000000F1020008D5
:10003000E302000800000000EF0200083D02000893
:100040003F0200083F0200083F0200083F0200088C
:100050003F0200083F0200083F0200083F0200087C
:100060003F0200083F0200083F0200083F0200086C
:100070003F0200083F0200083F0200083F0200085C
:100080003F0200083F0200083F0200083F0200084C
:100090003F0200083F0200083F0200083F0200083C
:1000A0003F0200083F0200083F0200083F0200082C
:1000B0003F0200083F0200083F0200083F0200081C
:1000C0003F0200083F0200083F0200083F0200080C
:1000D0003F0200083F0200083F0200083F020008FC
:1000E0003F0200083F0200083F0200083F020008EC
:1000F0003F0200083F0200083F0200083F020008DC
:100100003F0200083F0200083F0200083F020008CB
:100110003F0200083F0200083F0200083F020008BB
:100120003F0200083F0200083F0200083F020008AB
:100130003F0200083F0200083F0200083F0200089B
:1001400000000000000000000000000000000000AF
:100150003F0200083F0200083F0200083F0200087B
:100160003F0200083F0200083F0200083F0200086B
:100170003F0200083F0200083F0200083F0200085B
:100180003F02000800F002F800F03CF80AA090E8F6
:10019000000C82448344AAF10107DA4501D100F042
:1001A00031F8AFF2090EBAE80F0013F0010F18BFD3
:1001B000FB1A43F0010318470C0C00002C0C000044
:1001C000103A24BF78C878C1FAD8520724BF30C883
:1001D00030C144BF04680C60704700000023002455
:1001E00000250026103A28BF78C1FBD8520728BF47
:1001F00030C148BF0B6070471FB500F0D5FD1FBD73
:1002000010B510BD00F031F81146FFF7F5FF00F012
:10021000B9FA00F04FF803B4FFF7F2FF03BC00F0A7
:1002200057F800000948804709480047FEE7FEE705
:10023000FEE7FEE7FEE7FEE7FEE7FEE7FEE7FEE796
:1002400004480549054A064B70470000F5020008BE
:100250008501000870000020700600207002002058
:1002600070020020704770477047754600F02CF808
:10027000AE4605006946534620F00700854618B093
:1002800020B5FFF7DDFFBDE820404FF000064FF03E
:1002900000074FF000084FF0000B21F00701AC46BB
:1002A000ACE8C009ACE8C009ACE8C009ACE8C009DA
:1002B0008D46704710B50446AFF300802046BDE878
:1002C0001040FFF7A8BF0000004870470C00002056
:1002D00001491820ABBEFEE726000200704700BFB0
:1002E000FEE7704700BFFEE700BFFEE770477047BC
:1002F000704700001848006840F470001649086014
:100300001648006820F00100401C1449086000BF36
:1003100012480068C0F340000028F9D00F48406838
:1003200020F003000D49486000BF0C484068C0F34E
:1003300081000028F9D109480068094908400749A7
:1003400008600020486008634FF41F008860C803FD
:10035000014980390860704788ED00E000100240D4
:10036000FFFFF2FE00BFFEE70349496860F3071193
:10037000014A51607047000000100240034949687B
:1003800060F30A21014A51607047000000100240EA
:100390000349496860F3CD21014A5160704700006C
:1003A00000100240052827D2DFE800F0030A1118E8
:1003B0001F00134A126861F30002114B1A601CE01F
:1003C0000F4A126861F310420D4B1A6015E00C4A97
:1003D000126861F318620A4B1A600EE0084A126A4A
:1003E00061F30002064B1A6207E0054A526A61F3A4
:1003F0000002034B5A6200E000BF00BF70470000DC
:100400000010024010B501460020094B03EB1142D9
:10041000126801F01F040123A3401A4001F01F04D9
:100420000123A3409A4200D000E0012010BD00004B
:100430000010024030B50024002500E0641C1120AB
:10044000FFF7E0FF012802D0B4F5405FF6D311209A
:10045000FFF7D8FF012801D0002500E0012528463C
:1004600030BD000010B501290DD10E4B03EB104239
:10047000126800F01F040123A3401A43094C04EB47
:1004800010431A600CE0074B03EB1042126800F0B7
:100490001F040123A3409A43024C04EB10431A604B
:1004A00010BD00000010024010B568B91C4B5B681D
:1004B00023F480331A4C636023461B6B23F00073D4
:1004C00003F10073236317E0154B5B6823F480335B
:1004D00003F58033124C6360012805D123465B6825
:1004E00023F40033636007E00D4B5B6823F40033B3
:1004F00003F500330A4C6360094B5B6861F3954375
:10050000074C63600C09064B5B6864F35E73044C34
:10051000636023465B6862F3DF73636010BD0000B5
:10052000001002401348006820F00100401C1149EF
:10053000086000BF0F480068C0F340000028F9D0F1
:100540000C48406820F003000A49486000BF094891
:100550004068C0F381000028F9D1064800680649C8
:100560000840044908600020486008634FF41F00F9
:100570008860704700100240FFFFF2FE0D49496895
:1005800060F301010B4A516000BF00BF00BF00BF14
:1005900000BF00BF00BF00BF00BF00BF00BF00BF63
:1005A00000BF00BF00BF00BF00BF00BF00BF00BF53
:1005B000704700000010024002484068C0F381000C
:1005C000704700000010024010B5042000F090F9C0
:1005D000074800680749B0FBF1F007490860084682
:1005E00000684FF47A7148430449086010BD000068
:1005F0000000002040420F000400002008000020FE
:10060000002131E032280ADD194A126832235A43A8
:100610004FF0E0235A61A0F1320290B206E0144A92
:10062000126842434FF0E0235A61002000224FF04D
:10063000E0239A611A46126942F001021A6100BF72
:100640004FF0E022116901F001021AB101F4803289
:10065000002AF5D04FF0E022126922F001024FF09B
:10066000E0231A6100229A610028CBD17047000074
:1006700008000020416170474FF6FF7101600021C2
:1006800081710171042141710121C1717047F0B57F
:100690000A461588ABB29579032D01D100241AE0E2
:1006A000957965B9557905F00F045579182D01D163
:1006B000036110E05579282D0DD143610BE0957948
:1006C00005F00805167906F004063543D67906F0DC
:1006D000030645EA0604DDB2A5B1002110E00125BC
:1006E0008D401D405DB105688F000F26BE40B543AB
:1006F000056005688E0004FA06F635430560491C5E
:100700000829ECD3FF2B15DD1B12002110E0012579
:100710008D401D405DB145688F000F26BE40B5433A
:10072000456045688E0004FA06F635434560491C6D
:100730000829ECD3F0BD0000F0B50C46104F07EBD4
:100740001062C0F30741C0F30725C6B2C5F1200708
:10075000A7EB010C4FF0FF3707FA0CF3C5F12007A8
:100760007F1AFB40CB408B4017689F4317602CB12A
:1007700006FA01FC176847EA0C071760F0BD000095
:100780000000014000F05CFA00F03EFA00F010FAC0
:1007900000F034FA00F09AFA00F012FAFFF714FFB2
:1007A00012E04FF4FA70FFF72BFF012251030748C4
:1007B00000F0F4FA4FF4FA70FFF722FF00224FF432
:1007C0000051024800F0EAFAEBE700000010014097
:1007D00000BF00F00702064B19684FF6FF031940EF
:1007E000044B0B4343EA0221014B196000BF7047E1
:1007F0000CED00E00000FA052DE9F047002600248A
:1008000000250027A046A146FFF7D6FE8246BAF192
:10081000000F06D0BAF1010F15D0BAF1020F46D180
:1008200015E02D48406DC0F3402040B12A48006BD0
:10083000C0F3406018B129482949086002E02948FE
:100840002749086037E027482549086033E02248F7
:100850004068C0F3004720484068C0F383441E4806
:100860004068C0F341750DB90F2C03D12801401C1D
:10087000044400E0A41C27B91B48604318490860E1
:1008800014E015484068C0F3404058B11248406D2C
:10089000C0F30136B01C1349B1FBF0F060431049BE
:1008A000086003E00F4860430D49086003E00D480D
:1008B0000B49086000BF00BF07484068C0F3031839
:1008C0000A4810F808900648006820FA09F0044920
:1008D0000860BDE8F087000000100240006CDC02F8
:1008E0000000002000127A0000093D00B20D00084F
:1008F000042808D14FF0E021096941F004014FF0CC
:10090000E022116107E04FF0E021096921F00401C4
:100910004FF0E02211617047C1628262436923F0A7
:1009200001035B1C436170470B4633B1022B06D0B9
:10093000042B06D0062B08D105E0426306E0826353
:1009400004E0C26302E0026400E000BF00BF704741
:10095000026861F3092202607047026861F30612BF
:1009600002607047026861F300020260704710B5D0
:100970000B4633B1022B09D0042B0CD0062B14D11B
:100980000EE0846962F3C30484610FE0846962F35A
:10099000CB2484610AE0C46962F3C304C46105E046
:1009A000C46962F3CB24C46100E000BF00BF10BD86
:1009B0002DE9F04100250026002701F108035C1C09
:1009C00092F801C00CFA03FC1FFA8CF592F802C0F1
:1009D0000CFA04FC1FFA8CF6D0F804C04FF00108A2
:1009E00008FA04F82CEA080CC0F804C0D0F804C0D7
:1009F0004CEA060CC0F804C0D0F804C04FF001085F
:100A000008FA03F82CEA080CC0F804C0D0F804C0B7
:100A10004CEA050CC0F804C00F4637B1022F0DD0C8
:100A2000042F14D0062F24D11AE092F80080D0F8B9
:100A300018C068F3061CC0F818C01BE092F80080CC
:100A4000D0F818C068F30E3CC0F818C012E092F855
:100A50000080D0F81CC068F3061CC0F81CC009E078
:100A600092F80080D0F81CC068F30E3CC0F81CC09F
:100A700000E000BF00BF4FF0010C0CEB41034FF052
:100A8000030C0CEB410492F803C00CFA03FC1FFAB0
:100A90008CF592F804C00CFA04FC1FFA8CF64FF0A7
:100AA000010808FA04F8D0F820C02CEA080CC0F8B5
:100AB00020C0D0F820C04CEA060CC0F820C04FF08F
:100AC000010C0CFA03FCD0F8208028EA0C08C0F8CE
:100AD0002080D0F820C04CEA050CC0F820C04B00A4
:100AE0004FF0020C0CEB410492F805C04FEA4108AC
:100AF0000CFA08FC1FFA8CF592F806C04FF00208B9
:100B000008EB41080CFA08FC1FFA8CF64FF00108BC
:100B100008FA04F8D0F820C02CEA080CC0F820C06D
:100B2000D0F820C04CEA060CC0F820C04FF00108F5
:100B300008FA03F8D0F820C02CEA080CC0F820C04E
:100B4000D0F820C04CEA050CC0F820C0BDE8F08108
:100B500010B50B4633B1022B09D0042B0CD0062B59
:100B600014D10EE0846962F3820484610FE0846929
:100B700062F38A2484610AE0C46962F38204C46176
:100B800005E0C46962F38A24C46100E000BF00BFCD
:100B900010BD026861F3C71202607047426861F3DA
:100BA000061242607047826861F3C7128260704724
:100BB00010B501210148FFF7BFFD10BD0203103041
:100BC0001CB56846FFF758FD4FF400510A48FFF77F
:100BD00051FD02208DF8070000208DF80400102040
:100BE0008DF806004002009004208DF8050069464B
:100BF0000148FFF74CFD1CBD0010014010B503205B
:100C0000FFF7E6FD10BD000010B501214FF4C01044
:100C1000FFF728FC01210948FFF724FC01210748C0
:100C2000801CFFF71FFC01210448C01CFFF71AFCC1
:100C300001214FF4E010FFF715FC10BD0200180071
:100C400010B5FFF76FFC01210420FFF7ABFB00BFDD
:100C50001D48FFF7D7FB0128FAD101210846FFF70D
:100C6000A1FB00BFFFF7E6FB0028FBD0012100201D
:100C7000FFF798FB00BF0120FFF7C4FB0128FAD162
:100C800000220F211046FFF70FFC01210220FFF781
:100C900089FB00BF1920FFF7B5FB0128FAD100201E
:100CA000FFF762FB0420FFF773FB0420FFF766FBEE
:100CB0000220FFF763FC00BFFFF77EFC0228FBD198
:100CC000FFF79AFD10BD0000010024001FB502A827
:100CD000FFF7D2FC0120029008208DF80E000020C2
:100CE0008DF80C0004208DF80D0002208DF80F0007
:100CF00002A92948FFF7CBFC3F2242F20F714FF0C7
:100D00008040FFF709FE00214FF08040FFF725FEED
:100D100000214FF08040FFF71BFE00214FF0804084
:100D2000FFF737FF00214FF08040FFF73CFF002125
:100D30004FF08040FFF732FF06208DF800000120C1
:100D40008DF8050000208DF806008DF803008DF861
:100D500004008DF801008DF802006A4600214FF072
:100D60008040FFF725FE41F2873200214FF080409E
:100D7000FFF7DAFD002211464FF08040FFF7F7FD44
:100D8000002211464FF08040FFF7E2FE0121880764
:100D9000FFF7E8FD1FBD0000000801400AB1016136
:100DA00001E00B04036170474FF04070E1EE100A60
:100DB0007047000000000000000001020304060765
:100DC00008090000E40D0008000000200C000000ED
:100DD000C0010008F00D00080C00002064060000AF
:100DE000DC01000800127A00000000000000000092
:040000050800018569
:00000001FF
